:020000041000EA
:1000000000B5324B212058609868022188439860DF
:10001000D860186158612E4B002199600221596106
:100020000121F02299502B49196001219960352056
:1000300000F044F80222904214D00621196600F024
:1000400034F8196E01211966002018661A6600F04E
:100050002CF8196E196E196E052000F02FF8012189
:100060000842F9D1002199601B49196000215960AB
:100070001A491B48016001219960EB211966A021F2
:10008000196600F012F800219960164914480160C1
:100090000121996001BC002800D000471248134993
:1000A000086003C880F30888084703B5996A0420EC
:1000B0000142FBD001200142F8D103BD02B5186610
:1000C0001866FFF7F2FF186E186E02BD00000240BE
:1000D000000000180000070000035F00212200005C
:1000E000F4000018222000A00001001008ED00E03C
:1000F00000000000000000000000000074B24E7A12
:1001000000200420F7010010C3010010C5010010F9
:10011000C1010010C1010010C1010010C101001097
:10012000C1010010C1010010C1010010C701001081
:10013000C1010010C1010010C9010010CB01001065
:10014000CD010010CD010010CD010010CD01001037
:10015000CD010010CD010010CD010010CD01001027
:10016000CD010010CD010010CD010010CD01001017
:10017000CD010010CD010010CD010010CD01001007
:10018000CD010010CD010010CD010010CD010010F7
:10019000CD010010CD010010CD010010CD010010E7
:1001A000CD010010CD010010CD010010CD010010D7
:1001B000CD010010CD010010CD010010CD010010C7
:1001C00000BE00BE00BE00BE00BE00BEEFF3058054
:1001D000103800BEF2EB887148FF001068FF001075
:1001E0003402001090A31AE700201F49086006C8D7
:1001F00081F3088810471D48006800282FD10DA4FE
:100200000ECC002902D000F012F8F9E71849194A7B
:10021000002000E001C19142FCD1174988471749ED
:1002200088471749884700BEFDE701C901C29A42C5
:10023000FBD3704768FF0010C00000208812002028
:1002400030110110000004200000042030110110C2
:10025000001004200010042000000000704709482E
:1002600003F0ACFC0047000008ED00E0000000D007
:100270008812002098230020952800108903001080
:10028000552800105756000006005250ABB360537B
:100290004CF4001006005250861C03025CF400105F
:1002A000060052505422A29D64F4001005005250E2
:1002B000DE65F46830110110F8B5C0460448054BFE
:1002C00010B5834203D0044B002B00D0984710BDDB
:1002D000881200208812002000000000064807490C
:1002E000091A8B10C90FC91810B5491003D0044B57
:1002F000002B00D0984710BD8812002088120020E3
:100300000000000010B5074C2378002B09D1FFF73F
:10031000D5FF054B002B02D0044800E000BF0123AD
:10032000237010BDA8130020000000008080001082
:10033000054B10B5002B03D00449054800E000BF71
:10034000FFF7CCFF10BDC04600000000AC1300203A
:100350008080001010B500F04FFC00F069F801201B
:1003600010BDF0B585B005000C0016001F0001F0AF
:100370002DF80A9B0293019700962A00230001F0B2
:100380003FF905B0F0BD000000B583B004F072FD88
:1003900000F0A4FB044A054B009300231720002122
:1003A000FFF7DFFFFEE7C04655030010881200206C
:1003B00010B500F0D7F90400022100F0B9F92000CF
:1003C00000F0F2F9200010BD70B504000D00FFF739
:1003D000EFFF114B186029002000FFF7E9FF0F4BDA
:1003E00018600421142001F0E5FF0421152001F01C
:1003F000E1FF0B4B02221A600A4B0E32DA628022B6
:10040000D2009A6300225A63074B1A680123934370
:10041000064A136070BDC046FC2000200021002069
:10042000201B002000000540280005402810054042
:10043000F8B5184C206800F0F5F9174D286800F061
:10044000F1F924688226A25F28688425435FD218C8
:100450008623E15E5218C35ED218D717D2197A40AC
:1004600092029213805F645F001909185B18D91714
:100470005B184B409B029B13084908681204120C3E
:100480001B041343810009188A0005498C46624405
:10049000D360F8BDFC20002000210020201B00209C
:1004A0000000054010B50A00C00702D4044B1970C3
:1004B00010BD034B1978034B186800F0E5F9F7E716
:1004C00093230020FC200020D0B50400806A35234F
:1004D000E35C002B00D040083423E35C002B0ED0FB
:1004E00080235B0423632067E16ACB00A3670023BA
:1004F00063670009490803F0B5FBE067D0BD03F06E
:1005000089FE00220C4B03F018FE0022FF239B05FE
:1005100003F013FE06000F00E06A03F07BFE02000A
:100520000B003000390003F0EAFD03F0B3FE206356
:100530000023E367E2E7C04600007041F0B5C6461D
:1005400000B582B0436D026B9B184365190E0D0018
:100550001B021B0A4365436ECB1843666022825A16
:10056000934230D35E21415C002909D15931415C6D
:1005700000294DD05824015D01313F2631400155FD
:100580005821415C89061AD55A21415C002948D07E
:100590005C21445C0131415C8C4204D05926845D6D
:1005A00001277C408455002902D05E210124445457
:1005B0005921415C002932D0002458214454AA42D8
:1005C00036D39B1A43666D22835C5B19DBB283547E
:1005D0000132825C934215D36C26845D0121614017
:1005E0008155012C09D0816ECC0703D59024A4023B
:1005F00061408166816E49088166AA421BD39B1ABD
:100600006D228354836E01261E40B046002329E0EC
:100610005824015D3F313F2631400155B0E71F248A
:10062000CBE75E2101244454063900244454C6E734
:1006300000234366C7E76D230022C254E2E71A0095
:100640001832520082180024D4802BE0C21846329F
:100650000124147028E01A00403252008218002150
:1006600051800133022B5FDC190018314900411819
:10067000CA880095521992B2CA80190020314900E7
:10068000095A8A420ED3C71846373E78340066426C
:1006900066413E708D42D2D81C00183464000419A3
:1006A000521AE2800129D1D9C26F002A01D08A42B0
:1006B000D7D2016D01229A400A42CCD1C2184932E8
:1006C0001278002A04D1C21846321278002A24D0A7
:1006D000C2184C321278002A02D14246002A1CD09D
:1006E000C2183C3211788A060BD404681F220A40D3
:1006F000920011591A0040325200821809015180AB
:10070000AFE701685822825C920051581A004032CB
:100710005200821809015180A3E71A0040325200AA
:100720008218002151809CE702B080BCB846F0BD21
:10073000012904D0022905D0044B036001E0034BDA
:1007400003607047024B0360FBE7C046480B002084
:10075000C80B0020031E02D0006D196570470020F1
:10076000FCE7000070B506000D008821012004F0B0
:10077000BDF9041E14D00021FFF7DAFFA66235236D
:100780000022E254002D00D1064DE5623423002200
:10079000E2542000FFF798FE00212000FFF7DAFF67
:1007A000200070BD44AC000030B50023436516E066
:1007B0001A0018325200821800210024D1801A0039
:1007C000203252001152C218150046352C703C32AE
:1007D00014701A0040325200821851800133022BEB
:1007E000E6DD0023036503E0C21800211171013327
:1007F0000F2BF9DD002380228354094A82666C2284
:1008000083540132835401328354163A835408329C
:1008100083524366023A01218154436230BDC0468F
:10082000FFFF000010B504003423C35C002B22D16D
:10083000FFF784FE8223E35A8422A25A9B189BB2BC
:100840008622A25A9B181BB263621AE0A36F9B1800
:1008500063672000FFF772FE8223E35A8422A25AC4
:100860009B189BB28622A25A9B181BB2626AD318AD
:1008700063625B106362236F626F9342E6D8D21AA1
:1008800062672423E05E10BD30B50F291BD8314BC1
:100890005B5C15001D402A0043181D710D2912D8FC
:1008A0008B002D4CE3589F4649084A00531CC3183F
:1008B0001B791B02F02424012340821812799B1813
:1008C000203149000B5230BD1F232B406E22835430
:1008D000F9E701232B404921435402232B400131E6
:1008E000435404232B400131435408232B4001314E
:1008F000435410232B400131435420232B404E22DC
:100900008354E0E708396A0040183C300270DAE7A7
:10091000037C1B02C27B9B1860228352D3E7E90849
:10092000012319405A240155A908194001340155E1
:100930006D081D400134055513405D228354592331
:10094000C15405330022C254002900D11F2258236C
:10095000C254B8E7B880001080800010074B1B68B5
:10096000074A934205D8054A591C1160054AD05CD4
:100970007047054B01221A700020F9E7301C002057
:100980003B680000C88100109123002010B5FFF7DC
:10099000E5FF0400FFF7E2FF000280B2201880B2FA
:1009A00010BD70B5FFF7DAFF0600FFF7D7FF0400B0
:1009B000FFF7D4FF0500FFF7D1FF2402A4192D048F
:1009C00064190006201870BD10B503F0A3FF03F0F2
:1009D000C3FF02000B0000200A4903F090FB020055
:1009E0000B000020084903F08AFB0022064B03F0AD
:1009F000A4FB064C03F04EFC2060054B9A6A054BA5
:100A00001A6010BD8088E54000408F40C81C00205F
:100A100000400540142300200F231840092801DD61
:100A2000373070473030FCE7F0B583B0FFF796FF02
:100A3000294C2070FFF792FF6070FFF78FFFA070C6
:100A4000FFF78CFFE070FFF7ACFF04306060FFF74A
:100A5000A8FF06000020FFF7DFFF01AF3870300A63
:100A6000FF252840FFF7D8FF787030092840FFF7AE
:100A7000D3FFB87028003040FFF7CEFFF870FFF7C3
:100A800090FFE060FFF78DFF6061FFF78AFF043899
:100A90002062FFF786FF6062FFF783FFA062FFF727
:100AA00080FFE062FFF77DFF2063FFF76FFF606369
:100AB000FFF754FFA063FFF751FFFFF772FFE061FC
:100AC000FFF76FFFA061FFF76CFFE063FFF769FFBF
:100AD000FFF767FF03B0F0BD4423002010B5064BBD
:100AE00000221A70054B1A6005490648FFF76CFC96
:100AF000FFF79AFF10BDC0468B230020301C00205A
:100B000044AC00004C4F1B0010B50C00010000204D
:100B1000FFF7C8FC21000120FFF7C4FC10BD000056
:100B200010B52D4B1B78002B0CD12C4B1B78002BB8
:100B300008D12B4B9B6A2B4A12689B1A2A4A1268CF
:100B4000934200D810BDFFF709FF0300A02809D881
:100B50006128F7D3613BDAB23F2AF3D89300234AE6
:100B6000D3589F46E028EDD1FFF71BFFEAE7FFF7D8
:100B7000F5FE0400FFF7F2FE01002000FFF7C4FFBE
:100B8000E0E7FFF703FFFFF71FFFDBE71848FFF77A
:100B90001BFFD7E71748FFF717FFD3E7FFF7DEFE86
:100BA000FFF7DCFEFFF7DAFE1248FFF70DFFC9E79B
:100BB0000A4B01221A70C5E7FFF7D0FEFFF7CEFE01
:100BC000C0E70F231840FFF7FFFEBBE70F231840D5
:100BD000FFF7FAFEB6E7C0469023002091230020DD
:100BE0000040054014230020C81C0020C8800010CD
:100BF000DF0200007203000010B5FFF791FF10BD87
:100C0000024B9C46614489000160704740000034FB
:100C100010B5002B02DB0260436010BD024B034A9B
:100C200003483F2101F01AFE04EA0010A4F8001066
:100C300020EA001070B582B0060014001D00FA22F0
:100C4000920000230698002103F04AFE02000B00E8
:100C500012196B41002B09DB6846FFF7D9FF009A98
:100C6000019B32607360300002B070BD01225242BD
:100C7000004BF1E7FFFFFF7F10B582B0040000F0EA
:100C800061FD02000B006846FFF7C2FF009A019B5E
:100C900022606360200002B010BD30B585B0040052
:100CA0000D0002A8FFF7E8FF029A039B00952000C1
:100CB000FFF7C0FF200005B030BD10B5040000F004
:100CC0009BFE01002000FFF79BFFFF232371BFF372
:100CD0005F8F10BD10B5040000F08EFE01002000F3
:100CE000FFF78EFFFF23237100236371BFF35F8F34
:100CF00010BD0000034B9C46614489000160BFF3B6
:100D00005F8F70474000003410B50400012000F0F0
:100D100081FE01002000FFF7EDFF10BD084B5B6A6C
:100D2000994209D8064A926A824207D2994201D072
:100D3000012002E0002000E0002070470120FCE7D5
:100D40000040054010B500290AD003681B7B8B4288
:100D500006D38068054B9C4661440901401810BDCC
:100D6000034B044A04483C2101F078FDFFFFFF0FCC
:100D700000EB0010A8F9001024EB0010F8B50400F7
:100D80001700FFF7DFFF0668456839002000FFF70E
:100D9000D9FF026843680120AB4201D802D000208D
:100DA000C0B2F8BDB242FBD8F9E7000010B5002B85
:100DB00002DB0260436010BD024B034A03483F213F
:100DC00001F04CFD04EA001074F9001020EA001054
:100DD00010B582B004000498059912184B41002BFD
:100DE00009DB6846FFF7E2FF009A019B226063601F
:100DF000200002B010BD01225242014BF1E7C04673
:100E0000FFFFFF7F10B5002908D0037B8B4205D37D
:100E100000684B005B18033BC01810BD024B034A2F
:100E20000348682101F01AFD60EB001050F9001032
:100E30007CEB001010B5437B8B4201D1012010BD2B
:100E4000FFF7E0FF8378002B01D10020F7E70120B6
:100E5000F5E770B50400857B002D01D1280070BD39
:100E60002900FFF7CFFF4378A373002B00D1E37372
:100E70000023837043700370F0E70000F8B50600AC
:100E80000C001500FFF7BEFF0700002C0DD0002D51
:100E900011D0AC4215D029003000FFF7B3FF8470A9
:100EA0003B78002B13D13D70F8BD0A4B0A4A0B4822
:100EB0006F2101F0D3FC0A4B074A0848702101F06A
:100EC000CDFC084B044A0548712101F0C7FC437072
:100ED0003D70E9E7CCEB00102CF900107CEB001022
:100EE000D8EB0010E4EB001070B506000D00140004
:100EF000002914D0002A14D043688068984700283D
:100F000006D0220029003000FFF7B8FF280007E0D4
:100F10002A0021003000FFF7B1FF200000E01000A0
:100F200070BD0800FCE7000070B504000D1E0CD079
:100F3000FFF768FF0023837043700370617B2A0012
:100F40002000FFF7D1FF607370BD034B034A0448D4
:100F5000A52101F083FCC04644EC001040F90010CC
:100F60007CEB001070B504000D1E0FD0FFF762FF80
:100F700000280BD1E17B00290ED1A37B002B03D1EC
:100F8000E37B002B0DD1A573E57370BD084B094AB7
:100F90000948F62101F062FC2000FFF733FF45709D
:100FA000EBE7064B034A0448FB2101F057FCC0461F
:100FB000FCEB00101CF900107CEB001020EC001082
:100FC00010B5002907D003681B7B8B4203D3C06890
:100FD0000139401810BD034B034A0448412101F078
:100FE0003DFCC04600EB001008F9001024EB001097
:100FF00010B50C00CB68834207D10B6908009847F5
:10100000002809D02068616810BD064B064A5221AD
:101010000648FF3101F022FC0023E360002000219C
:10102000F2E7C04634EC0010BCF8001024EB0010CE
:1010300070B505000C00080000F04CFC09492000C8
:1010400000F08CFB00F0D8FC074B9C46604480000D
:1010500068602C75D0231B061B786B75034BA400AE
:10106000E55070BD7D11001040000034EC200020E0
:101070000A4B1A68EFF3108172B61368002BFCD08C
:10108000BFF35F8F054B1B68BFF35F8F00221A60B1
:1010900081F3108840BF00200021704710230020FA
:1010A00010B582B0040000F04DFB02000B00684652
:1010B000FFF77CFE009A019B22606360200002B073
:1010C00010BD70B584B0040016001D0002A8FFF723
:1010D000E7FF029A039B009601952000FFF778FE38
:1010E000200004B070BD0000F0B583B0070001928D
:1010F0001D000AAB1C780BAB1E78002C0BD00068CF
:101100002100FFF797FE002809D0194B194A1A4809
:10111000672101F0A3FB0068FFF79BFE0400002C91
:1011200002D1200003B0F0BD21003800FFF70AFE15
:10113000019B03604560089B8360099BC36038681E
:101140002100FFF7F1FEA042EBD1387D019A2B0080
:1011500000F04CFB051E01D0002E04D00C9B002B90
:10116000DFD01D70DDE73868210001F0D3F8F5E726
:1011700048EC00105CF9001024EB0010F0B5DE46DE
:1011800057464E464546E0B58FB00021794B820068
:10119000D6588A460B9083E039003000FFF7D2FD25
:1011A000814602684368121BAB41002B09DD4B46A8
:1011B0001A685B680B9800F019FB0023994600241D
:1011C0008AE0002B01D1002AF1D10021584601F01C
:1011D00097F80500B84215D14B465C681B68089328
:1011E00009944B469C68DB689946002C10D0390066
:1011F0003000FFF7E5FE03789A461B021D43356178
:10120000002069E05C4B5D4A5D488E2101F026FBC1
:101210005C4B5A4A5A48922101F020FB3369002B5B
:1012200000D177E0AB4219D10698079900234242DA
:101230008B4100920193089A099B0CA8FFF7C8FD07
:101240000C9A0D9B002104910131039102974946AC
:10125000019100943000FFF747FF16E04A4B474AE0
:101260004748A12101F0FAFA069A079B002B01D109
:10127000002A52D130683900FFF774FE390030007F
:10128000FFF79EFE03780133037000233361726819
:10129000BFF35F8F136088F310880120002862D0AD
:1012A0000CA8FFF7FDFE0C9C0D9D00220023089268
:1012B00009937268EFF3108872B61368002BFCD0A4
:1012C000BFF35F8F33689B465F7B002F00D063E7DF
:1012D00000239946002400207368BFF35F8F00222B
:1012E0001A6088F31088002CD8D053461D023D4365
:1012F00049462800A047069007917268EFF31088CE
:1013000072B61368002BFCD0BFF35F8F079B002BD6
:1013100000DA83E7079B002BA6DD3369002BA9D0F9
:10132000AB421AD10CAD2800FFF7BAFE0C9A0D9B08
:1013300006980799009001912800FFF749FD0C9A43
:101340000D9B0021049101310391029749460191BF
:1013500000943000FFF7C8FE97E70B4B074A084898
:10136000A42101F07BFA0FB0F0BCBB46B246A946FF
:10137000A046F0BDEC20002070EC00108CF90010AD
:1013800024EB001088EC001094EC001010B50C4B0E
:101390005B68002B04D00B480A21FFF731FC10BD1D
:1013A000074C094A20682300102100F014FF032095
:1013B00000F0BCF903212000FFF73AFEEBE7C0463E
:1013C000480C0020102300207D0D001010B5064BA6
:1013D0005B68002B01D0044810BD044B044A05484B
:1013E0005E2101F03BFAC046480C0020D0EC001012
:1013F000F0F8001024EB0010F0B5DE4657464E46DC
:101400004546E0B58FB0050090460793189B9A4675
:10141000199B99461AAB1B780993272304AA944673
:10142000634400221A70CB4623E001002800FFF736
:10143000C7FD00783FE00898002B62D0099B002B85
:101440005FD05946D04706000F0003000B435FD022
:10145000002945DB0AAC2000FFF722FE0A9A0B9B0D
:10146000009601972000FFF7B3FC0A9B98460B9B60
:1014700007936A68EFF3108972B6136859424B41BB
:10148000D9B20891002BF8D1BFF35F8F273304AA9C
:101490009446634404930023039302935B460193B1
:1014A000534600934246079B2800FFF71DFE069017
:1014B000041EBAD106986B68BFF35F8F00211960D4
:1014C00089F31088002C1AD0272304AA9446634479
:1014D0001B78002BAFD10002069A02431000ABE745
:1014E00000237242BB41009201934246079B0AA827
:1014F000FFF76EFC0A9B98460B9B0793B9E7012008
:1015000040420FB0F0BCBB46B246A946A046F0BD73
:101510000898F6E7F0B5C64600B584B005008846E1
:1015200016001F000AAB1C78FFF750FF02940197CA
:1015300000962A004346FFF75FFF04B080BCB84620
:10154000F0BD0000F0B5C64600B505000C1E42D047
:101550004268EFF3108772B61368002BFCD0BFF31C
:101560005F8FE6B22B68984631001800FFF762FCE7
:1015700000282AD02B69A34213D0240AE4B23100F8
:101580002800FFF71DFD0378A34211D000206B68EF
:10159000BFF35F8F00221A6087F3108880BCB846C3
:1015A000F0BD0E4B0E4A2C210E48FF3101F056F9CA
:1015B0003100404600F0AEFE0028E8D10A4B084A50
:1015C00099210848490001F049F92B69A342DED16D
:1015D00000232B61DBE70020E0E7C046F4EC0010BD
:1015E000D8F8001024EB001018ED001010B504001E
:1015F000FFF7ECFE2100FFF7A5FF10BD407D70470F
:10160000F0B587B00500100019000E9C13000B43C5
:1016100001D101200021A5600C9B23612060616045
:101620000D9B6361CE1737007040020071400B00C4
:10163000921BBB4104A8FFF744FD049A059B0121BE
:1016400002910194044900912800FFF7D5FEE06063
:10165000C043C00F07B0F0BDF10F001030B583B02C
:1016600005000C00EFF30583002B0FD10B4A00237C
:101670000093FFF74FFF00280BDD20BFFFF7B6FFF9
:1016800028002100FFF74AFB03B030BDFFF746FBFF
:10169000FAE728002100FFF741FBF5E77110001081
:1016A00070B5EFF305801038EFF3108C72B6194B5C
:1016B0001B68002BFBD0BFF35F8F01221300834018
:1016C00015494B6315490B60154909780C00C44056
:1016D000224213D0104A546A124A8500AA589442F2
:1016E00005D3114AAA580E4C9943217007E00A4AC3
:1016F000031D9B0099589950002200E00022BFF37F
:101700005F8F044B002119608CF31088002A00D0F1
:10171000904770BD280100D0004005403C70054056
:101720009423002020230020101B002010B501006E
:10173000024A034B180000F00DF910BD1CED00101B
:101740008C230020044B5B6A034A906A1900536A99
:101750009942F9D17047C0460040054070B5040079
:101760000E00EFF3108572B61B4B1B68002BFBD0ED
:10177000BFF35F8F002E1CD0200000F0F9F9174B4B
:1017800083420BD01900200000F00CFA0121200048
:1017900000F0DEF90123A340114A1360114BA400AD
:1017A000E650BFF35F8F0C4B00221A6085F3108860
:1017B00070BD0C4BA2000021D1500122A2400A4969
:1017C0000B7893430B700549200000F01DFB0021AE
:1017D000200000F0BDF9E4E7280100D0A1160010B8
:1017E00038600540101B002094230020F0B5DE4631
:1017F00000B584B00400150001921E000293FFF7AB
:10180000A1FF03958E4202D84ED185424CD9EFF309
:10181000108B72B6274B1B68002BFBD0BFF35F8F7A
:10182000254A17780125A540EBB23B431370234BA3
:101830005D63221D92000199D150214AA1000298B6
:1018400088501B6A2B4212D11C4B1B6C2B4208D0B8
:101850000020BFF35F8F174B00221A608BF31088B4
:1018600023E0184B184A1948C52100F0F7FFFFF78D
:1018700069FF8E4214D802D1039B834210D80E4BCD
:101880001B78BB420ED00D4B1D625D631F222240B0
:10189000012393400E4A1360074B1F700120D8E7C5
:1018A0000020D6E70120D4E7012004B080BCBB466D
:1018B000F0BDC046280100D0942300200040054020
:1018C0002023002040ED0010B4F9001064ED00105A
:1018D00080E200E0EFF3108C72B60B4B1B68002B1C
:1018E000FBD0BFF35F8F01238340084A136208498E
:1018F0000A789A430A70BFF35F8F034B00221A6085
:101900008CF310887047C046280100D00040054085
:1019100094230020034B1B6802201840431E98416B
:10192000C0B2704700C00640EFF3108072B6034BA0
:101930001B68002BFBD0BFF35F8F70472C0100D0DA
:10194000BFF35F8F024B00221A6080F3108870474C
:101950002C0100D0F8B506000C001500FFF7E4FFDD
:10196000E308F718F15C07222240012393400B4261
:1019700005D1DBB20B433B70FFF7E2FFF8BD21005E
:10198000280001F003F8F0B583B0060001911400BF
:101990001F00FFF7C9FF00E00134BC420CD8E30888
:1019A000F518F35C0721214001228A401A42F3D145
:1019B000D2B21A432A7001E001246442FFF7C0FF4B
:1019C000002C02DB200003B0F0BD019B002BF9D0FE
:1019D000089800F0DBFF0000002307E0054A9A1892
:1019E0009200BFF35F8F0021116001331F2BF5D9E7
:1019F0007047C04640000034054A1078431CDBB2F3
:101A00001370172B02D9130010221A707047C046AA
:101A1000700C002010B582B00100054C054B0093FE
:101A20001F2318222000FFF7AEFF02B010BDC046F2
:101A30002C1C0020ACED0010074B9B681030800080
:101A40001950BFF35F8FBFF35F8F044B0021196004
:101A500082F310887047C04600ED00E0240100D0FA
:101A600010B50388DA0A1C2A05D15B055B15023321
:101A70005B00C01810BD034B034A0448B12100F0BD
:101A8000EDFEC046C8ED001024FA0010E0ED001095
:101A900010B5091A0B1F0A4A88180A4A904208D83A
:101AA000C90706D45B105B055B0D0748184380B27D
:101AB00010BD064B064A0748A32100F0CFFEC046E2
:101AC000FC070000FE0F000000E0FFFF24EE001006
:101AD00018FA0010E0ED001010B5091A04394A0890
:101AE000090B08D14905490D064B0B430380064BF2
:101AF0001343438010BD054B054A0648AB2100F057
:101B0000ADFEC04600F0FFFF00F8FFFF54EE0010EE
:101B1000ECF90010E0ED001001238340034A106847
:101B20001840431E9841C0B27047C04600E100E033
:101B3000002904D0034B1860034B18607047034B17
:101B40001860FBE780E200E000E100E080E100E0F7
:101B500010B5012383401800FFF7EAFF10BD000015
:101B600001238340014A13607047C04600E200E051
:101B7000024B9B6810308000C058704700ED00E0B9
:101B800010B5FFF7F5FF002805D0054BC01A2F2828
:101B900003D8012010BD0020FCE70020FAE7C04672
:101BA000740C002070B504000D00EFF3108672B6BF
:101BB0000C4B1B68002BFBD0BFF35F8F2000FFF79F
:101BC000D7FF094B984201D0A84205D13200290025
:101BD0002000FFF731FF70BD044B054A0548862100
:101BE00000F03CFE240100D0CD01001064EE001096
:101BF0004CFA0010E0ED0010F0B5DE4657464E46B8
:101C00004546E0B589B0814601911500EFF3108A91
:101C100072B66D4B1B68002BFBD0BFF35F8F6B4B15
:101C200000269E57002E41DB7400A419A4006848CA
:101C300024180622A256654B1A70664B9A684B46CA
:101C400010339B00D35898461F00181A2F2839D9F3
:101C5000614B984530D105AF604B3B8060497300C4
:101C60009B46981980005A4B984640440230FFF733
:101C70000FFF78805B4BBB80FF23BB71FD71019B25
:101C8000079333005B449B00434407CF07C3012302
:101C90001C43A046524641464846FFF7CDFE09B0D8
:101CA000F0BCBB46B246A946A046F0BD4E4B4F4ADB
:101CB0004F48D72100F0D2FD4E4B4C4A4C48DE2114
:101CC00000F0CCFD01380C2101F0CCFF002912D12D
:101CD00001239F43BB463B000027DA79AA4211D972
:101CE0000621595600290CDB4A0052189200384947
:101CF0001F008B18F1E7404B3C4A3D48EA2100F0B9
:101D0000ADFD1F00002F2ED005AB3C4A1A80813A52
:101D10005A800623FB560293002B17DA384805AB8E
:101D20009B469880029A9A71DD71019A0792381D3C
:101D30002100FFF7ADFEB880BE71254B72009219ED
:101D400092009B185A4613CA13C3A3E7381DFFF726
:101D500087FE01007000801980001D4BC018043000
:101D6000FFF796FEDBE705AF1C4B3B801C49730079
:101D700002939B199B00164A90461A004244039214
:101D8000901CFFF785FE7880039A101D5946FFF7D7
:101D90007FFEB8801B4B5A464146521A524153436C
:101DA0001B0DBB71FD71019A0792029B9B199B0051
:101DB000434407CF07C3114B5A461380813B5380DE
:101DC00001231C43A04665E7240100D08D23002099
:101DD000740C002000ED00E0CD01001000A1FFFF19
:101DE000A40C002001BDFFFF9CEE001034FA00108F
:101DF000E0ED0010C4EE0010ECEE00100148000011
:101E000001BD0000AAAA0000F0B5CE46474680B545
:101E100083B006000D00EFF3108872B64F4B1B68BD
:101E2000002BFBD0BFF35F8F4D4B9A68340010340A
:101E3000A300D7584B4B9F4207D0AF4200D18BE055
:101E40000197494BFB1A2F2B09D942463900300024
:101E5000FFF7F2FD03B0C0BCB946B046F0BD30009C
:101E6000FFF75AFE814600213000FFF771FEBFF3F5
:101E70005F8FEFF30581002901D08C4211D101233E
:101E8000019C9C430020A368AB4212D00622A256BC
:101E9000002A0DDB53009B189B00334A2000D41806
:101EA000F1E7324B324A36213248FF3100F0D6FC9E
:101EB0002000AB4249D106256557002D2BDB2A4B6C
:101EC0006A00521992009B189A68A260DA79E2714E
:101ED0009B795BB2A371002B0FDA2748A080224BBD
:101EE0006A00521992009B18244A11789971157052
:101EF00049463000FFF72CFEA7E768004019800034
:101F0000194BC0180430FFF7ABFD0100231D18006A
:101F1000FFF7BEFDE2E7002912D100280ED0FF2313
:101F20008371174B838015490B78A3710E4A154BAB
:101F3000A41A644163431B0D0B70D9E7094FF2E704
:101F40001149201DFFF7C8FDD2E7104B084A6A214E
:101F50000848FF3100F082FC024F76E7240100D0F0
:101F600000ED00E0CD010010740C002060EF0010C7
:101F700004FA0010E0ED001001BD00008D230020E8
:101F800001BDFFFFAAAA0000AE0C002094EF0010D4
:101F900070B5012202432E4BD31A2F2B28D8EFF312
:101FA0000583002B2BD0EFF3108C72B629490968FA
:101FB0000029FBD0BFF35F8F254C274905002D1B5F
:101FC0006D416943090D4CB2244989689B00C95889
:101FD00091421BD00021032932D81D4B4A005218D0
:101FE00092009B189B795BB2A3421FD00131F2E7AC
:101FF0001B4B1C4AC7211C48490000F02FFC1B4BFF
:10200000184A92211848FF3100F028FC134A9268C0
:102010001749D150174B1A7882711C70BFF35F8F2C
:102020000C4B00221A608CF3108870BD084B4A00DC
:102030005518AD005D19FF26AE710F4AAA80E9E779
:102040000E4B084AD1210848490000F007FCC04661
:10205000740C0020240100D0AAAA000000ED00E0CA
:102060009CEF0010D0F90010E0ED0010C4EF00105C
:10207000CD0100108D23002001BDFFFFD0EF001027
:102080000022044B02E0044902C30132072AFAD9B4
:102090007047C04600E400E08080808010B582B0C8
:1020A0000100074C074B0093052300222000FFF797
:1020B0006AFC002801DB1F23181A02B010BDC046BD
:1020C00095230020D8EF001010B5002908D0037B1D
:1020D0008B4205D300684B005B18033BC01810BD52
:1020E000024B034A0348682100F0B8FB60EB001084
:1020F000A8FA00107CEB0010F8B506000C001500E3
:10210000FFF7E2FF0700002C0DD0002D11D0AC42EC
:1021100015D029003000FFF7D7FF84703B78002BE3
:1021200013D13D70F8BD0A4B0A4A0B486F2100F0ED
:1021300095FB0A4B074A0848702100F08FFB084BBB
:10214000044A0548712100F089FB43703D70E9E7BE
:10215000CCEB001094FA00107CEB0010D8EB0010D0
:10216000E4EB001070B506000D001400002914D037
:10217000002A14D0436880689847002806D02200BF
:1021800029003000FFF7B8FF280007E02A002100EF
:102190003000FFF7B1FF200000E0100070BD080024
:1021A000FCE770B505000023437301338373037BA1
:1021B000C373012406E021002800FFF785FF0134E6
:1021C000E4B24470297BA142F5D82800FFF77CFFD8
:1021D0000023437070BD10B5017342608360FFF748
:1021E000E0FF10BDF0B5C64600B505000C1E03D1DA
:1021F000200080BCB846F0BDFFF766FF4678002E91
:10220000F6D031002800FFF75FFF4778002398469B
:10221000437021002800FFF757FF43464370320008
:1022200021002800FFF79EFF040039002800FFF777
:10223000D9FF020021002800FFF794FF0400D7E730
:10224000F0B5C64600B504000D001700002927D0E0
:10225000FFF73AFF4378002B28D18378002B2BD14E
:1022600001782000FFF7BEFF06008046002F0AD04D
:10227000E17B002926D1A37B002B03D1E37B002B3C
:1022800025D1A573E5734346002B26D129002000F4
:10229000FFF71AFF00234370300080BCB846F0BD42
:1022A000114B124A1248382100F0D8FA114B0F4A4C
:1022B0000F483A2100F0D2FA0F4B0C4A0C483B2150
:1022C00000F0CCFA2000FFF7FFFE4570D3E70B4B80
:1022D000064A0748422100F0C1FA31002000FFF70A
:1022E000F3FE00238370D1E7F4EF001080FA0010B2
:1022F000FCEF00103CF0001064F0001020EC001027
:1023000070B504000A00457B2900FFF799FF607350
:10231000280070BD70B506000C1E40D0437B8B4278
:1023200007D0FFF7D1FE05008178002906D10020F3
:1023300036E00121FFF7E4FF012031E03000FFF734
:10234000C3FE0178A1420DD03000FFF7BDFE4178F9
:10235000A1420AD00029F7D1124B134A13486B311E
:1023600000F07CFA6B78037001E06B784370002317
:10237000AB706B70012221003000FFF761FF02009B
:10238000717B814205D03000FFF7ECFE70730120B5
:1023900006E0074B044A0548712100F05FFA00206F
:1023A00070BDC046D0EF001068FA0010FCEF0010BE
:1023B00088F0001010B58300084A944663441A68F8
:1023C00040246240803414408022520113431C6038
:1023D000C000034B9C466044416010BD04C00140F6
:1023E00000400140F8B5DE4657464E464546E0B54A
:1023F00006000F0015000A9A934250D31A0E924617
:102400001B0298460A9A00234046514601F068FC98
:1024100081467400A419A4002F4B9C466444636851
:10242000834200D26060331FDBB29B46012B3CD954
:10243000C0239B012343802212011A60274BB20064
:10244000D158002907D0586901F00CFC0130430035
:102450001B18033BFDD26D0123685D40E0222A403A
:1024600080235B0123431A605A46012A28D980231E
:102470009B012343802212011A604B4663604A4647
:1024800000234046514601F02BFC144BB6009851F6
:102490000120F0BCBB46B246A946A046F8BD104B91
:1024A000104A1148332100F0D9F9012FC0D1C023BF
:1024B0009B01234303221A60A368DB07FCD5CAE70C
:1024C0002168794003220A401A60A3680125BD40B3
:1024D0001D42FAD0CBE7C04600800040341C0020EB
:1024E000A8F00010B4FA0010BCF0001030B583B0B2
:1024F0000C2000F00BF9FFF70DFA00280DD0002397
:1025000004E02E4A99002E4888500133092BF8D94F
:102510002A4B2C4A5A6203B030BD2B4B00229A67DB
:1025200000F066F9294B01221A60274B5B6C012BE6
:10253000FBD1274B03221A60234B9B6B012BFBD152
:10254000013300930433234A0121234800F04EF85D
:1025500005230093214A0121214800F047F8214B2F
:102560000093002202210420FFF73CFF1E4D00953E
:102570002B00002201210520FFF734FF104C0094AE
:102580002300002200210720FFF72CFF00942300E6
:10259000002200210820FFF725FF0A4B00932300AB
:1025A000002200210920FFF71DFF00952B000022CB
:1025B00000210620FFF716FFADE7C046341C0020BF
:1025C000006CDC021BB70000008000403CB0004003
:1025D00030B00040002F685900800240008C8647D0
:1025E00000C00240001BB70040597307F0B5C64653
:1025F00000B504000E0017001D00374801F032FB43
:102600008046364BFA18364B9A4239D801003800CA
:1026100001F028FB0200103A98235B009A4235D85B
:102620006B1E062B38D8069B013B062B34D83F097E
:10263000474537D32D04069B1B031D432368002BFE
:1026400036DB284B9C4244D080235B01264A136032
:10265000264A1360264A926819009143FAD12660EF
:10266000A060221DC0239B01134321221A6022680F
:10267000002AFCDAE56008221A6080BCB846F0BD8A
:102680001C4B1D4A1D48112100F0E8F81C4B1A4A4A
:102690001A48192100F0E2F81A4B174A17481C2172
:1026A00000F0DCF8184B144A1448232100F0D6F847
:1026B00022683F231340B342C3D1A3681B051B0DFF
:1026C0008342BED1E368EE22D2021340AB42B8D1BE
:1026D000D3E780239B01B9E7001BB70080E84BD309
:1026E00080F8A93200C0024000E0004000F0004045
:1026F00000C0004004F10010C4FA001064F10010A2
:10270000A8F10010C4F1001010F2001080239B000B
:102710000343014AD362704700800540024B1A68A8
:10272000024B5A607047C046DC2000200080054004
:1027300010B5174B8022D2051A60164B164A1A6044
:1027400000290AD0154BE022D2041A60002809D1D2
:10275000124B802212061A6010BD0D4BE022D204EB
:102760001A60F3E743011B1A9B00181800010C4B79
:10277000186080235B04984202D3094B094A1A600F
:10278000FFF7CCFF054B8022D2051A60E4E7C04674
:1027900000B0054008200140FCFF010000A00540FA
:1027A000DC200020FFFFFF0010B5030010000C4AE2
:1027B0008024E4051460002B0DD001221343094A44
:1027C000094CD461094C5C4014625162936200214F
:1027D000FFF7AEFF10BD034B0022DA61F7E7C046FA
:1027E00000B0054000800540D3C007B02D3FF84F32
:1027F000064BAA2212011A602F22DA60044B054A06
:102800001A60024B5B68002BFBDA70470040024005
:102810000060024000B0FA0000BEFDE703000A4A73
:102820001268002A08D0084A1068C318074A9A425A
:1028300006D3054A13607047034A05491160F2E761
:1028400001204042F7E7C046D81C002000000420C9
:102850009823002010B5FFF7DFFF000030B583B0EC
:102860000D001900002A0BD0074B084C0192009371
:102870002B000200200002F0F1FA0120FFF7CCFF4C
:10288000034B1A00F1E7C0462CF200103CF2001096
:1028900038F2001070B52B4B2B4A1A602B4B2C4A88
:1028A0001A602C4B9A682A4B9343FAD12A4C01E0C8
:1028B00008CC9847294B9C42FAD3FFF717FE234BCD
:1028C000274A1A60234B9B68DB43DB01FAD1254B77
:1028D00040229A675A671A67DA66234C09E0234B4D
:1028E000234A24488721FFF7B9FF2000FEF7E5F9C6
:1028F0000834214B9C4209D22368002BF5D0012BD0
:10290000EDD12000FEF7E6F90834F2E71B4DA96887
:102910001B4CC022200002F00FF9AC60EFF30583DE
:10292000002B00D000BEFFF757F8FFF7A9FBFEF71A
:102930002DFD144C01E008CC9847134B9C42FAD370
:1029400070BDC04600E00040BFCDFBFE00F000407F
:10295000FE7F3C0000C000406C1200207C12002072
:10296000FFFFFF0100F001405C1200206CF200103C
:10297000D0FA00108CF200106C12002000ED00E084
:10298000000000207C120020881200200FB400B547
:1029900083B0084802F032FA049B002B07D005A947
:1029A0000191180002F03AFA034802F027FA0120D8
:1029B000FFF732FFD4F20010E4F20010704710B5B8
:1029C000002802D00B684968984710BD010000201C
:1029D00007E083001B185B00501C08601078C018CB
:1029E00030380A681378303BDBB2092BF1D97047D5
:1029F000F0B5DE4657464E464546E0B583B09346B1
:102A00001F000C9B9A460D9C0E9B99460F9B9B07A3
:102A100017D0B8460F00060022E0551C4B46414631
:102A20002020B84701342A00B442F6D33D004F4677
:102A30005C46019B9B46B1464646B84637002E0091
:102A40000EE00192A34688464E46B9460700EBE7E2
:102A5000013C551C5346185D43463900B0472A00D7
:102A6000002CF5D135003E0047460F9B9B0711D443
:102A7000100003B0F0BCBB46B246A946A046F0BD6C
:102A8000541C4B4641462020B8472200531BB342FA
:102A9000F6D3EDE7B0464E46B9462F005D46F5E762
:102AA000F0B5CE46474680B585B0944698460C9D15
:102AB0000D9C0EAB1B789946109A119B129EB7077E
:102AC0001CD4002B0CD0F7070AD54F46002F02D19B
:102AD0000C37374204D0013B02E030272F55013438
:102AE000944201D21F2CF8D9F70707D59C4205D292
:102AF0001F2C03D830272F550134F5E7F70612D5E0
:102B0000770505D4002C03D0944221D09C421FD0DD
:102B10000F9A102A2FD00F9A022A36D01F2C0AD8CB
:102B200030222A5501341F2C05D84A46002A32D0BB
:102B30002D222A55013403960293019400954346B1
:102B40006246FFF755FF05B0C0BCB946B046F0BDC0
:102B5000621E012C17D00F9F102F0BD014000F9A5C
:102B6000102AD8D1B206D6D51F2CD4D858222A552F
:102B70000134D3E7023CB206F1D41F2CEFD87822FF
:102B80002A550134CAE71400C2E71F2CD3D860329B
:102B90002A550134C2E7720703D52B222A55013486
:102BA000C9E73207C7D520222A550134C3E7F0B55B
:102BB000DE4657464E464546E0B593B081468A46C6
:102BC000089209931CAB10CB1B789B461E9D219B42
:102BD0009846002C03D1102342469A439046802306
:102BE000DB0046461E4042461A4218D0002C22D036
:102BF000002614E0424692061BD54121C918C9B2ED
:102C00000A39C9B2771C0AAB99552900200001F096
:102C100029F8AC4210D31F2F0ED83E000400290023
:102C2000200001F01FF8CBB2092BE3D83033D9B222
:102C3000E8E76121E2E7270043460693209B0593DE
:102C40001F9B049303955B46029301970AAB009385
:102C5000099B089A51464846FFF722FF13B0F0BC83
:102C6000BB46B246A946A046F0BDF0B5DE46574683
:102C70004E464546E0B597B00A900B910C929A46A5
:102C8000209B9946219F22AA13789B46249B099357
:102C9000259C289B98464A463A4302D110329343DA
:102CA00098468022D20045461540434613420AD03A
:102CB0004A463A4341D000252E0053460D934D46D7
:102CC000099B9A4621E02E0053460D934D46099BE1
:102CD0009A461AE04246920623D54122D218D2B231
:102CE0000A3AD2B2731C99460EAB9A55524623004B
:102CF0002800390000F0F4FFBC4220D813D04B4626
:102D00001F2B16D84E4605000F0052462300280000
:102D1000390000F0E5FFD3B2092BDBD83033DAB24B
:102D2000E0E76122DAE7AA45E9D94E460D9B9A46CB
:102D300008E04E460D9B9A4604E0002602E04E460F
:102D40000D9B9A4643460693279B0593269B049327
:102D5000099B03935B46029301960EAB0093534687
:102D60000C9A0B990A98FFF79BFE17B0F0BCBB4674
:102D7000B246A946A046F0BDF0B5DE4657464E46DF
:102D80004546E0B591B0804689460C929A461A9C19
:102D90001B9D22002B002000290001F02CFA0028A6
:102DA00000D0F2E001225242D54B2000290001F070
:102DB0001DFA002800D0E8E001225242D14B200049
:102DC000290001F0FDF9002800D0DEE000220023F8
:102DD0002000290001F0F4F9002800D0EAE0069470
:102DE00007958023DB001E9A1A400D921E9A1A4204
:102DF00001D106231C930698079902000B00089244
:102E0000099303000A00024300D1DFE0080D4005EA
:102E1000400DBD4EB4466044079E3203120B1E00A7
:102E2000BA4B13431F0001F0F9F9B94AB94B01F04D
:102E300084F9B94AB94B01F059F908900991002277
:102E4000B74B3000390001F048F9B64AB64B01F0F3
:102E500074F902000B000898099901F047F901F094
:102E6000F5F9834601F0DAF906000F00AF4AB04BDE
:102E700001F063F90022AF4B01F038F901F0E6F9F7
:102E80000890AD4AAD4B3000390001F056F906000C
:102E90000F00089801F0C2F9A94AAA4B01F04DF9B8
:102EA00002000B003000390001F017F906000F0096
:102EB00002000B0001F041F90A900B91089BA24A15
:102EC0009446634400210022089109921B0509934E
:102ED0000023089332003B003000390001F006F96E
:102EE0000E900F9132003B0000208021C90501F0B7
:102EF000F4F806000F000022944B0A980B9901F099
:102F0000FEF80022924B01F0F1F802000B000A9843
:102F10000B9901F0F4F800228E4B01F0E7F8020063
:102F20000B000A980B9901F0EAF802000B00300040
:102F3000390001F0DBF802000B000E980F9901F048
:102F4000DEF80022714B01F0D1F8089A099B01F0DC
:102F5000F4F806000F0008960997069A079B01F0FF
:102F600045F900280BD001235B429C46E344002234
:102F7000774B3000390001F0C2F8089009915B46A8
:102F80006333C62B45D8042623E01E9B04931D9B68
:102F900003931C9B02930094019553460C9A494657
:102FA000404600F0FBF811B0F0BCBB46B246A94663
:102FB000A046F0BD002100220691079206948023CE
:102FC0001B069C46AC44634607930AE700239B46D6
:102FD00004261E9B1B0528D5089A099B190011433E
:102FE0000FD05D4A5D4B0698079901F0F7F800286D
:102FF0007AD000225A4B0698079901F0E1F8002890
:1030000072D01C9B5B4506DD5A469B1A013B1C9304
:1030100003E00526DDE700231C938023DB001E9AD6
:103020001A431E92002600239B461D9B9E4265D29A
:103030009F1B02231E9A1A400A921E9A134202D024
:10304000002E00D000275B46002B07D0089A099B72
:103050000698079901F053F8069007910022002383
:103060002000290001F0ACF8002800D07CE03D4BA6
:103070001E9A1340049303971C9B0293069B079C84
:103080000093019453460C9A4946404600F086F856
:10309000002E00D187E71E9B9B0671D54525441C59
:1030A0005346020049462800C0475A46D317D21853
:1030B0005A4005230593013E0496002303930A33E7
:1030C00002935B46DB0F0193009253462200494670
:1030D0004046FFF76CFD0A9B002B00D163E702001E
:1030E00047460C9E1D9D53E01C9B002B9DD00D9BC5
:1030F000002B9AD01C9B013B1C9396E7002798E776
:10310000FFFFEF7FFFFFEFFF01FCFFFF0000F03F3D
:10311000FB799F501344D33FB3C8608B288AC63FC6
:103120000000F83F61436F63A787D23F71A379091D
:103130004F930A400000E03F1655B5BBB16B02400B
:10314000EF39FAFE422EE63FFF03000000002C405C
:1031500000002440000018402D431CEBE2361A3FCB
:1031600080842E41FFF7FFFF069C079D2200290067
:1031700080200006844661440B000692079376E7A0
:1031800065258CE7541C534649462020B847220049
:10319000931BAB42F6D3100005E7C046F0B5DE4600
:1031A00057464E464546E0B595B006900791934682
:1031B0009946209F1E9A1F9B1000190001F01BF8D2
:1031C000002831D101225242BC4B1E981F9900F0B9
:1031D000F7FF002837D101225242B94B1E981F99A0
:1031E00001F004F800283DD10022B64B1E981F992B
:1031F00000F0FCFF00284AD10022B34B1E981F9913
:1032000000F0DEFF002842D1002200231E981F9903
:1032100000F0D6FF00284AD100239846229B5B0588
:1032200000D4B0E0002452E0229B0393219B029340
:1032300003230193A54B00934B465A4607990698E2
:10324000FFF7D6FB08E1229B0393219B0293042303
:1032500001939F4B00934B465A4607990698FFF7F8
:10326000C7FBF9E0229B5B070ED59A4B04222299FB
:10327000039121990291019200934B465A46079976
:103280000698FFF7B5FBE7E0934B0322EFE7229B9D
:103290000493219B039302971E9B1F9C0093019410
:1032A0004B465A4607990698FFF766FDD4E01E9AEA
:1032B0001F9B0020002100F010FF1E901F91012392
:1032C0009846ABE70CAB30221A55013F01341F2C56
:1032D00001D8092FF6D81E981F9900F0B7FF0500F6
:1032E00000F09CFF02000B001E981F9900F0F5FEF5
:1032F0007A4BFA009B181A685B680A920B9300F0ED
:103300001CFF0890099100F0C5FF060000F082FF45
:1033100002000B000898099900F0DFFE089009915F
:1033200000226F4B00F062FF00282ED001363000E3
:1033300000F070FF02000B000A980B9900F046FFA6
:10334000002801D001350026002F2CD1280000F0E4
:1033500065FF02000B001E981F9900F0BEFE0600DC
:103360000F0000225E4B00F02BFF002846D1002208
:103370005B4B3000390000F039FF00283ED1EB07ED
:103380003CD501353AE006274CE70022544B08981B
:10339000099900F015FF0028D6D1002E01D0F307BF
:1033A000D2D50136D0E7AA461F2C11D8013F0A21F9
:1033B000300000F057FC651C30310CAB19550A2168
:1033C000300000F04FFC092E0ED906002C00EBE770
:1033D00055461F2C0CD87B1E002F09D00CAA30217B
:1033E00011551F000134F4E72B0055461C00F0E78F
:1033F0001F2C03D80CAB2E221A5501341F2C10D8C9
:103400000A21280000F006FC661C30310CAB19556F
:103410000A21280000F0FEFB051E01D03400EDE774
:1034200034000323229A1340012B1CD01F2C06D8F2
:103430004346002B32D00CAB2D221A550134229B6F
:103440000393219B029301940CAB00934B465A4685
:1034500007990698FFF7CCFA15B0F0BCBB46B24608
:10346000A946A046F0BD219B002B13D04346002B5C
:1034700002D10C3313420FD0219B013B2193190041
:1034800003E00CAB30221A5501348C42CED21F2CF3
:10349000F7D9CBE72199F8E72199F6E7229B5B075B
:1034A00004D50CAB2B221A550134C8E7229B1B070D
:1034B000C5D50CAB20221A550134C0E7FFFFEFFF42
:1034C000FFFFEF7F65CDCD4165CDCDC1F4F200109A
:1034D000F8F20010E8F20010F0F2001080FC00108A
:1034E0000000E03FF0B5DE4657464E464546E0B5A3
:1034F00093B007008A4693461193002900D12CE32C
:10350000002508E06C1C5B462A005146B847119B19
:10351000013311932500119B1878002800D11EE378
:103520002528EFD1013311930023180020E0012357
:10353000184301321192012418E00223184301328A
:103540001192012412E00423184301321192012444
:103550000CE00823184301321192012406E01023E5
:10356000184301321192012400E00024002C09D0FC
:10357000119A1378203BD9B21029F6D88B00C44990
:10358000CB589F468146119B1A781300303BDBB223
:10359000092B10D92A2A13D00B94119B1A782E2AA2
:1035A00020D0119A1378683BD9B2122965D88B00C4
:1035B000B849CB589F4611A8FFF708FA0B90ECE7E3
:1035C0001C9B1A1D1C921B68002B04DB0B93119B88
:1035D00001331193E1E702220100114389465B4266
:1035E0000B93F4E78022D2004946114389465A1CC6
:1035F00011925A781300303BDBB2092B0BD92A2ADF
:10360000CFD11C9B1A1D1C921C68002C08DB119B3F
:1036100001331193C5E711A8FFF7D8F90400C0E7FB
:103620000024F4E780235B0049460B43511C1191B1
:1036300051786C2901D099461FE0C0239B00494670
:10364000194389460232119217E0802349460B4301
:10365000511C11915178682901D099460DE0C02381
:103660004946194389460232119206E080235B00E5
:1036700049461943894601321192119B18786728EF
:103680001CD8252800D25EE20300253BDAB2422A8C
:1036900000D958E29300804AD3589F4680239B006C
:1036A00049461943894601321192E6E780235B00BF
:1036B00049461943894601321192DEE7782800D93C
:1036C00041E2692800D23EE20200693AD2B2012307
:1036D0009340724A134210D11A0600D50CE25B05E2
:1036E00000D430E21C9B1A1D1C921E68002C00D0D6
:1036F000BAE101225242330096E16F2842D005D848
:10370000582841D0622803D1022606E078283DD00F
:1037100010234A469A4391460A26582838D06928E9
:1037200005D0642803D00C224B46934399464B4660
:103730005A0502D501229343994669282DD0642861
:103740002BD04B469A0500D5AAE0DA0500D5C2E099
:103750005A0600D4D3E01C9A111D1C911168FF2257
:103760000A404B4605930B9B049303940296002357
:10377000019300925B462A0051463800FFF717FA82
:1037800005002AE00826C8E71026C6E71026C4E789
:1037900020224B4613439946C1E74B469A0520D455
:1037A000DA0551D45A0666D51C9A111D1C91116870
:1037B000FF220A40D017111841404B4605930B9B3E
:1037C000049303940296D20F019200915B462A0063
:1037D00051463800FFF7EBF90500119B01331193B7
:1037E00099E61C9A073207218A43110008311C917F
:1037F000116853689C46DB170C930D930C9A0D9B34
:10380000100048400E900D9B61464B400F930E9860
:103810000F990C9A0D9B801A99410E900F914B466F
:1038200008930B9B07930694049600230593634625
:10383000DA0F0292009001915B462A00514638004F
:10384000FFF713FA0500C8E71C9A111D1C911268B6
:10385000D0171118414005930B9B049303940296D3
:10386000D20F019200915B462A0051463800FFF7C3
:103870009EF90500B1E71A0605D51C9A111D1C9189
:103880000023D25E96E71C9A111D1C91126891E7E5
:10389000E0FA001024FB001070FB001041900000C3
:1038A0001C9A073207218A43110008311C910893A2
:1038B0000B9B079306940496002305930293536889
:1038C0001268009201935B462A0051463800FFF7C8
:1038D000CCF9050081E71C9A111D1C9105930B9BE7
:1038E00004930394029600230193136800935B46AC
:1038F0002A0051463800FFF75AF905006DE71A060D
:1039000006D51C9A111D1C9112681204120C28E78E
:103910001C9A111D1C91126823E746281AD01C9B83
:103920000733072293431A0008321C924A46049236
:103930000B9A039202941A685B68009201935B46AB
:103940002A0051463800FFF729FC0500119B01337E
:103950001193E0E520234A461A439146DFE76728A2
:1039600001D0472804D180231B014A461A439146BF
:10397000452801D0472803D120234A461A439146BF
:103980001C9B0733072293431A0008321C924A46B5
:1039900004920B9A039202941A685B680092019356
:1039A0005B462A0051463800FFF7E6F90500119BF7
:1039B00001331193AFE502234E461E404A4613429F
:1039C0001ED001241C9B1A1D1C926A1C904618785C
:1039D0005B462A005146B847002E14D1119B013393
:1039E0001193454697E5551C5B4651462020B84744
:1039F00023002A005C1C0B999942F4D81500E1E7DA
:103A000001232A00F6E7424606E0561C5B46514673
:103A10002020B8472C003200651C0B9BA342F4D831
:103A20009046DBE701330A001978002902D0511EC5
:103A3000002AF7D19B1B8022D200494611408846BC
:103A40004946114202D0A34200D92300022249462E
:103A50001140109149460A4208D02A002500994693
:103A60003B004746984626E0220044E6A1462A004D
:103A70005146B2460E0006E0551C5B463100202040
:103A8000B84723002A005C1C0B999942F4D8150012
:103A900022004C46330056469A4691462A0025009D
:103AA0003B004746984606E01D000136541C5B4625
:103AB0005146C04722003078002804D0002FF4D0AF
:103AC0006B1E002DF0D115004B464746109A002A78
:103AD00003D1119B013311931DE50B9E2A0006E0D3
:103AE000551C5B4651462020B84723002A005C1C29
:103AF0009E42F5D81500ECE721234A461A431300ED
:103B00001C9A111D1C9112680593082304930394B9
:103B1000083302930023019300925B462A0051462A
:103B20003800FFF744F80500119B01331193F2E4CC
:103B30006C1C5B462A0051462520B847119B013377
:103B400011932500E7E46C1C5B462A005146B847F8
:103B5000119B013311932500DDE40A4FD0E45D454C
:103B60000DD35B465A1E5B4651460020B8472800DD
:103B700013B0F0BCBB46B246A946A046F0BD2A0031
:103B8000F1E7C046BD29001010B584B00C0002A9B1
:103B900002904C6001240448009313006242FFF736
:103BA000A1FC04B010BDC046BF290010014804218B
:103BB000014B1847C00C0020DD3B001010B5010080
:103BC00018231B8814221088984710BD10B50100D7
:103BD00018231B8816221088984710BDF0B5C646DA
:103BE00000B507000E0000250123984600E00135CE
:103BF000B5420AD2AC003C192068FFF7DFFF206015
:103C00000028F4D100239846F1E7404680BCB8462E
:103C1000F0BD0000124A936F9B0815D29066D166E2
:103C2000002905D0FFE7FFE7FFE7516F106F7047EE
:103C300004B580210906C2175140002800D0C843AE
:103C400004F0CEF9002104BDF0B5146E556E576F27
:103C5000166FFFF7E3FF1466556657671667F0BDEA
:103C6000000000D0114A936F9B0813D21066516672
:103C7000002905D0FFE7FFE7FFE7516F106F70479E
:103C800004B5002801D00020C04304F0A9F90021A8
:103C900004BDC046F0B5146E556E576F166FFFF732
:103CA000E5FF1466556657671667F0BD000000D043
:103CB00094464A4A926F9208624601D228E0C04672
:103CC000F0B5464E346E756E776F366F00F020F8A3
:103CD0009446424A14665566576716676246F0BDB9
:103CE00094463E4A926F9208624601D254E0C04622
:103CF000F0B53A4E346E756E776F366F00F04CF853
:103D00009446364A14665566576716676246F0BD94
:103D1000002B24DB11D000293EDA00B5C943404214
:103D200000D1013100F038F8C943404200D10131DF
:103D3000DB43524200D1013300BD002AEBD1002801
:103D400001D1002905D00020C90FC90701D1C04306
:103D5000410800B504F03CF90022002300BD00B585
:103D600000290ADBDB43524200D1013300F014F892
:103D7000C943404200D1013100BDC943404200D196
:103D80000131DB43524200D1013300F005F8DB433F
:103D9000524200D1013300BD002923D1002B18D19C
:103DA000002A0CD0BC460D4F38667A6600210023ED
:103DB000FFE7FFE7FFE77A6F386F67467047002835
:103DC00001D00748010000B504F002F900220023E9
:103DD00000BD02000B00002000217047000000D051
:103DE000FFFFFFFF002B00D0BFE0130C28D1002AFB
:103DF000E7D080B4114F39667A66FFE7FFE730B449
:103E0000040C7B6F396F1B0423433B667A66FFE724
:103E1000FFE7FFE7C04684B27B6F3D6F1B0423437F
:103E20003B667A66FFE7FFE7C04600232C042D0CB3
:103E30007A6F386F00196941B0BC7047000000D03C
:103E4000F0B594460025140E01D112020835140F66
:103E500001D112010435940F01D192000235D40F23
:103E600001D152000135D40B0134254F7C66254C1D
:103E70003C660E0C93B2FFE7FFE7FFE73C6F66433B
:103E8000360C7703BE467343DF0B5B04C01AB9419F
:103E9000130C7343DB18C91ACE086643360CB644BC
:103EA00093B273431F0F1B01C01AB941130C734324
:103EB0001F0B1B05C01AB941860D8F023E43664396
:103EC000360C092D24DB520A7243801A7703460A06
:103ED0006643360C16235B1BDE40DF40BF19644689
:103EE0006643821B7046043506330100D940A84062
:103EF000C01900D30131A24206D20023F0BD000058
:103F0000000000D0FFFFFFFF121B0130F3D3F1E7E9
:103F100009277F1BFE406446A2B27243801A00D27A
:103F20000139220C7243130C1204821A99410B00BE
:103F30007046043513370100F940A840801900D3BA
:103F40000131002B02D1A2420AD2F0BD013000D3D0
:103F50000131121BFAD2013BF8D1A24200D2F0BDCE
:103F6000013000D30131121BF7E7F0B51C0C00D073
:103F700080E00CB400251C0A04D11B02160E33434A
:103F8000120208351C0B04D11B01160F334312011A
:103F900004359C0B04D19B00960F334392000235ED
:103FA000DC0B02D192185B4101351C00971864416B
:103FB0000134464F7C66464C3C660E0CFFE7FFE73B
:103FC000FFE7C0463C6F6643360C7703BE4697B2A8
:103FD0007743C01B00D20139C01B00D201399FB208
:103FE0007743C91BC91B170C77437E04FF0B801B4B
:103FF000B941CE086643360C0C2D33DBB644120BA8
:104000001F053A431B0B97B27743C01B00D20139FF
:104010009FB27743C91B170C77433E043F0C801BAC
:10402000B941860D8F023E43664329277F1BFE4020
:104030000C3D7746AF40BF1930BCA2B2ABB2724361
:104040007343801A9941220C7243130C1204801A94
:10405000994102000B000137001BA941F9D2781EDB
:104060000021F0BD0C277F1BFE4077467F0BAF4041
:10407000FF19E0E700245D1C07D0144F7D66396608
:10408000FFE7FFE7FFE7FFE73C6F95B29EB26543AE
:104090006643401BB141150C1E0C65436643360454
:1040A0002F0C3E432D04401BB141994204D2020023
:1040B0000B0020000021F0BD01D19042F7D3801AFF
:1040C000994101349942F2D3F6E70000000000D094
:1040D000FFFFFFFF48404140484018B41B4B5B685E
:1040E000FC46019308BD04DFB343001018B4174B1E
:1040F0001B68FC46019308BD00DFBD4300109446D9
:10410000134A926F920809D2624618B40F4BDB68CB
:10411000FC46019308BD0CDF754600100C4AF0B553
:10412000146E556E576F166F6246FFF7EEFF084A22
:104130001466556657671667F0BD18B4034B9B6845
:10414000FC46019308BD08DF194500100C21002032
:10415000000000D0FFB550404240504059404B4015
:10416000594000E0FFB5154F4C00640D03D0BC4230
:1041700004D10C0314D80020090D09055C00640D5E
:1041800003D0BC4204D11C030AD800221B0D1B051E
:1041900001264B4009D44B4003D58B4200D18242CB
:1041A000FFBD9942FCD19042FFBD0B43DB18034396
:1041B0001343F5D0C9434918FFBD0000FF070000B5
:1041C00000B5FFF7CFFF804100BDC04600B5FFF747
:1041D000C9FF01D9002000BD012000BD00B5FFF7D7
:1041E000B9FF01D9002000BD012000BD00B5FFF7D7
:1041F000B1FF804100BD012040054A00121804D8DB
:104200005A00121801D80020704701207047002082
:10421000704700000021002805D17047C1174840B1
:10422000401AFAD0C90713B5064B1B6898470CBC57
:10423000441CA2401005120B0349091B0905194330
:10424000114310BD0C2200201F04000010B54C00CB
:10425000620D8023D218DB00D21A5B057E2A10DDA6
:104260009E3A13DACC170903490819435242D14048
:10427000640001341532202A05DAD0400843604337
:1042800010BD002010BD0846604310BDC80FC01807
:10429000013810BD18B4044B5B6AFC46019308BD9D
:1042A00024DF2548001000000C21002070B51323E6
:1042B0001C78012C12D0012C12DC214B214A936472
:1042C0002148FFF77BFC214B186070BD1C491D4A3B
:1042D0009800815001331F2BF8D9ECE70023FAE74F
:1042E0001B48FFF773FC05001A48FFF76FFC023804
:1042F00003789B007F2B09DD12488022290000F003
:104300001BFC022C08D0022CDADCD6E7124B134A35
:1043100013483221FEF7A2FA124B1A88B5231B026A
:104320009A4209D1104B1A88104B9A4204D1104B73
:104330001A88104B9A42E6D00020FEF727FBC046B1
:10434000794300100C2100204C3300000C22002087
:10435000534400005346000000F30010D0FC00104E
:1043600054F3001054380000D838000049460000CB
:104370009C3800005946000007B56046002800D16F
:1043800000BE01880A0A0230DF2AFAD1C9B28208C7
:1043900004D3028840880004104300E00068024A09
:1043A0005050039007BD00000C2100200FB403BC47
:1043B0000CBCF0B50124E407634000E0F0B50C0D3F
:1043C000CF0F661E3605891B640503D3C9434042DF
:1043D00000D30131640D03D0661CF60A07D0E41B3C
:1043E00000207F00791C89078912803C24031D0D61
:1043F000DF0F6E1E36059B1B6D0503D3DB43524258
:1044000000D301336D0D03D06E1CF60A07D0ED1BEF
:1044100000227F007B1C9B079B12803D2D032F1BDE
:10442000661B58D4A446202E46DA20371400BC4020
:104430001D00BD40F24033412A4380185941CB0F43
:1044400005D0C943C04300226442504151416246F5
:104450004D0D28D10D0D07D100281FD02419404142
:104460004941013A0D0DF9D0640006D3013000D363
:104470000131002C01D140084000013A0BD4941CBA
:10448000E40A04D112051144DB071944F0BDD90731
:10449000204B194300E0D9070020F0BD0029DDD1F1
:1044A000002CDBD1F0BD0132C6074008CD07284300
:1044B0004908002EE1D0D9E73C2E29DA203E4037CA
:1044C0001400BC4000D00124F24014431A00BB4049
:1044D0001C43D317ACE7AC46202F08DA2036040083
:1044E000B4400D00B540F84039412843A5E73C2FC2
:1044F0000CDA203F40360400B44000D00124F840DC
:1045000004430800B1400C43C117EAE7100019004A
:10451000002494E70000F07FF0B50C0D661E360510
:10452000891BE60A6405640D02D0651CED0A04D0FF
:10453000002001210905803C2403A4461C0D671EB0
:104540003F05DB1BE70A6405640D02D0651CED0A1C
:1045500004D0002201231B05803C240377406444DF
:1045600097B484B296B27443070C7E43150C6F4324
:1045700080B26843361802D3012000043F1830048B
:10458000350C00197D41844688B29AB250430C0C18
:1045900062431F0C7C438EB27E43921902D30126E4
:1045A0003604A4191604170C3618674101BC81B2F1
:1045B0009AB25143040C62431B0C5C4380B25843D3
:1045C000121802D30120000424181004130C401800
:1045D00063412D185E410020474106BC88B293B26A
:1045E00058430C0C6343120C544389B251435B187B
:1045F00002D301210904641819041A0C0918624134
:104600006D1856410020474118BCF902720D114344
:10461000F0026A0D1043ED020A0D03D16D194041FD
:104620004941013B124E9B1B7600B3420ED26D00F6
:1046300007D30130002671416646354301D1400859
:1046400040001B05C918E4072144F0BD0BDA013313
:1046500006D1013004D101314F0D01D04908F2E7F4
:10466000E1070020F0BD013631050020EBE7000036
:10467000FF030000F0B51C0D671E3F05DB1BE70ABA
:104680006405640D02D0661CF60A04D000220123E2
:104690001B05803C2403D0252D060026F6432E66FC
:1046A0001E096E66CE0FF619B44649004F0D02D0B2
:1046B0007E1CF60A03D000200021403F3F033E1B32
:1046C000B600B444013F7F05C91B49082E6F01366F
:1046D00076089C02950D25437543ED137543AD1384
:1046E00001356D10F603761B0CB4CC02450D2C433E
:1046F000A2B2B3B25A43270C7B43350C6F43A4B22A
:104700006C431B1902D3012424043F191C041D0C03
:10471000A4187D4124196D41009A91B2ACB2614355
:10472000170C7C432B0C5F4392B25A43A41802D35C
:1047300001221204BF182204230C52187B41019C51
:104740006C431B19520ED9010A434401A01A81B2CD
:10475000B2B2514303145A43360C734387B27743C2
:10476000D617D21900277E4136049B191704160C60
:104770007F185E417316ED18F301002680337541F2
:10478000A90F06D16400690AE8055B0A184309D23B
:104790002FE00422944480337541A90AA8059B0A9E
:1047A000184326D3404149412404009A019B0D003F
:1047B0005543641B4343E41A95B286B27543170C04
:1047C0007E43030C5F4392B25A43B61802D30122D0
:1047D0001204BF183204330C52197B4152429C41DF
:1047E000002C02D40022013051414008CA07104376
:1047F000490802B06246D7079210084BD218084BFE
:104800009A4203D212058918C919F0BD0020002A66
:1048100001DC3900F0BD01331905F5E7FD030000A7
:10482000FE070000002200B5203200F004F8080066
:1048300000BD000000220B150AD410B5944600F00C
:1048400031F81414013400DA0021CB17144C20473E
:104850000020002170476244343A0CD40C2A07DA55
:1048600004009140904052422032D440214310BD78
:10487000D843D94310BD203207D40C46944052424D
:1048800020321141D040204310BD0800C91720320A
:1048900003D452422032104110BD1800190010BD3F
:1048A000574800100A0DCC0F531E1B05C91A52059C
:1048B00003D3C943404200D30131520D03D0531CEE
:1048C000DB0A07D0121B00206400611C89078912D3
:1048D000803A1203014BD21A70470000FF03000018
:1048E00051434343C9188C46110C83B24B4310B457
:1048F000040C614392B280B2504362431C041B0C0F
:10490000001910BC59411304120CC01851416144E4
:1049100070470000C10FC90700D54042002817D0DA
:10492000F44603B40B4B1B68984706BC81409E3885
:104930004042803107D20B0607D04900490AC00522
:104940001043084360470130F8E7490A8902F5E758
:10495000704700000C220020034BDB6FFC46184719
:104960007CDF9D4A001000001022002070B5132348
:104970001E782A48FFF72AF90500012E11D0012ED2
:1049800009DDAB1E1B789B007F2B40DD2448802275
:10499000290000F0D1F82348FFF710F9224B1860E6
:1049A00070BD1F485422290000F0C6F81F4B1A881A
:1049B0001F4B9A421CD1A7239B011A881D4B9A4278
:1049C00016D11D4B1A881D4B9A4211D11C4B1A88C7
:1049D00094239B019A420BD11A4B1A881A4B9A4284
:1049E00006D11A4B1A681A4B9A4201D1152307E0D7
:1049F0001848FDF7CBFF184C094A99008C50013339
:104A00001F2BF8D9144B064A1362D361B7E7134B37
:104A1000134A14484221FDF721FFC04653460000C7
:104A2000102200204C3300000C220020EE29000050
:104A3000C40F0000C20D0000962B0000C0B500009E
:104A4000182B0000CC2A000010B50000FC2C000040
:104A500051ED876438F20010694A0010A4F3001089
:104A6000E4FC0010D8F3001007B56046002800D120
:104A700000BE01880A0A0230DF2AFAD1C9B28208D0
:104A800004D3028840880004104300E00068024A12
:104A90005050039007BD000010220020C30FDB0719
:104AA00041000A0E07D0FF2A08D00909054A8918D3
:104AB0001943400770471900002070470249C91880
:104AC000FAE70000000000380000F07F10B5002871
:104AD00004D04018034B984200D810BD0248FDF79F
:104AE00055FFC0460000042024F4001070B50400F7
:104AF0000D00094E300003F0BBFA2900200002F03F
:104B0000CDFC0400300003F05BFA29002000FFF721
:104B1000DDFF200070BDC0465C120020014804216A
:104B2000014B1847D00C0020DD3B0010014B1B68E7
:104B300018470000D00C0020014B5B6818470000AC
:104B4000D00C002010B50300080011001B68984726
:104B500010BD0000F8B507000D001600437D002BC6
:104B600002D0002400200CE00368110028009847C0
:104B70002DE03B7D10E03B68154802219847601C02
:104B80000134B44214DA002CF3DD2B19013B1B78FD
:104B90000D3B5A425341DBB22A5D0A2AF0D1002B69
:104BA000EED1A042E7DA3B68211A28189847E2E7DD
:104BB000B04203DA3B68311A28189847002E06DD08
:104BC000AD19013D2B780D3B5A4253413B75F8BD61
:104BD0001CFD001070B505000368002B16D00C4BAF
:104BE0001C6805E0290004C92000FFF7B3FF246911
:104BF000002C09D02368002BF9D0064B1B68002B32
:104C0000F0D0A342F3D1EDE700232B6070BDC04686
:104C1000C41C0020D41C002070B505000C000B68DB
:104C2000802B05D023685A1C2260E418257170BDC2
:104C30000800FFF7CFFFF5E710B5002B02DB02609D
:104C4000436010BD024B034A03483F21FDF706FEB7
:104C500004EA001020FD001020EA001010B582B018
:104C60000400FCF76FFD02000B006846FFF7E4FF4D
:104C7000009A019B22606360200002B010BD00001A
:104C800070B582B0060014001D00FA2292000023C5
:104C900006980021FFF724FE02000B0012196B4159
:104CA000002B09DB6846FFF7C7FF009A019B3260C3
:104CB0007360300002B070BD01225242004BF1E738
:104CC000FFFFFF7F30B585B004000D0002A8FFF79D
:104CD000C5FF029A039B00952000FFF7D1FF20003B
:104CE00005B030BD00B583B0FA2189006846FFF7F2
:104CF000E9FF009A019B024803F092F903B000BD5E
:104D00006412002010B5024803F05AF910BDC046E5
:104D100064120020F0B5CE46474680B583B0060049
:104D20000D0090461C00FFF7DDFF81466B1C05D08F
:104D3000002C08D0194F1A4B1C6807E0300002F015
:104D400043FF0500F4E7174FF5E72469002C17D05F
:104D50002368002BF9D0144B1B68002B01D0A34211
:104D6000F3D12A0031002000B8474346002BECD095
:104D70006B46D91D0A230B7001222000B847E4E7D7
:104D80004B46002B07D16B1E9D41E8B203B0C0BC5F
:104D9000B946B046F0BDFFF7B5FFF4E7454B00104C
:104DA000C41C0020554B0010D41C00200A4A136874
:104DB00002E01A0010321B69002B09D013688342ED
:104DC000F7D1002907D1036913600023036102E0D2
:104DD000002900D010607047C41C002010B5064B9D
:104DE0001C6800E02469002C04D06368002BF9D013
:104DF0009847F7E710BDC046C41C002070B50500F9
:104E000002F0E2FE04000023012201002800FFF767
:104E100081FFFFF7E3FF200070BD0000F0B5A3B0F5
:104E200004000E00FFF75EFF050001AF00230193B1
:104E30000948330022003900FEF7A6FE04003800BE
:104E4000FFF7C8FEFFF7CAFF002D02D1200023B0F4
:104E5000F0BDFFF757FFF9E7194C00100FB400B58C
:104E600083B004A901C90191FFF7D8FF03B008BCC2
:104E700004B0184710B500F0B3F910BD704700003A
:104E8000014B00221A7070478E2300204B79FF2BB4
:104E90000CD18B79002B0BD1CB79012B0AD1082AAD
:104EA0000AD98A78054B1A70092000E00020704763
:104EB0000020FCE70020FAE70020F8E78E2300201E
:104EC0000120704770B504000D000348FEF776FE20
:104ED00003002900200098475542000010B5012921
:104EE00026D1117953791B020B43124909788B4261
:104EF00001D000201DE05378012B03D0022B10D0ED
:104F0000002016E09178D3781B021943DB0506D503
:104F10004B0A012098407F231940FFF7D3FF002060
:104F2000F9E7642200210020FDF73EFC012000E0AB
:104F3000012010BD8E23002001230370004870471C
:104F400038FD001010B50A784B781B0213438A789D
:104F500012041A43CB781B0613439622D2009342C5
:104F600000D010BD00210800FFF7ACFF024B186015
:104F7000024B19607047C046241C0020281C0020EA
:104F800010B5002B02DB0260436010BD024B034AE8
:104F900003483F21FDF762FC04EA00106CFD00109D
:104FA00020EA001010B582B00400FCF7CBFB020031
:104FB0000B006846FFF7E4FF009A019B22606360E4
:104FC000200002B010BD000070B582B006001400D1
:104FD0001D00FA229200002306980021FFF780FCB2
:104FE00002000B0012196B41002B09DB6846FFF72A
:104FF000C7FF009A019B32607360300002B070BD41
:1050000001225242004BF1E7FFFFFF7F30B585B030
:1050100004000D0002A8FFF7C5FF029A039B00954C
:105020002000FFF7D1FF200005B030BD10B582B0E1
:1050300004000498059912184B41002B09DB6846BF
:10504000FFF79EFF009A019B22606360200002B080
:1050500010BD01225242014BF1E7C046FFFFFF7F26
:1050600010B5024B1878FCF77BFD10BD8F23002094
:105070000268EFF3108172B61368002BFCD0BFF307
:105080005F8F41607047000070B50F4B1B68002BAD
:1050900016D00D4C2000FFF7EBFF0C4B00221A70CE
:1050A00021686368BFF35F8F0A6083F31088002470
:1050B0000025074B1878FCF753FD2000290070BD30
:1050C000FA24A4000025F4E7E42000209223002025
:1050D0008F230020F0B5C64600B586B08046160086
:1050E0001D000EAB1C7804AF3800FFF75BFF049A7D
:1050F000059B009601953800FFF798FF049A059BE1
:1051000002940D9901910C9900914046FCF774F9B5
:1051100006B080BCB846F0BDF0B5C64600B584B058
:105120000500884616001F000AAB1C78FCF74EF9F4
:105130000294019700962A004346FFF7CBFF04B084
:1051400080BCB846F0BD000010B582B01848002100
:1051500002F04EFF002820D1164B1B68002B24D0F4
:10516000144C2000FFF784FF134A1378DBB20121AF
:10517000117021686268BFF35F8F0020086082F3BE
:105180001088002B11D10D4A013300930023FA201F
:1051900080000021FFF7C0FF07E00120002140420E
:1051A00001F08AF8024802F00BFF02B010BDC046C1
:1051B00018230020E42000209223002089500010B2
:1051C00010B5054B1868002804D0044B196800225C
:1051D00000F0A0FD10BDC046241C0020281C0020AB
:1051E00010B582B0D0231B061C68FCF7EFF8FCF763
:1051F00005FAA0422CD1234B1B7801F021FD224857
:10520000FBF75BFD0120FCF749FF204C2070204993
:10521000FF231840FCF7C6FC20780121FCF798FC1E
:105220000520FCF7ADFC041E18D01A490022052009
:10523000FCF7E2FCFCF7E0FB0100174B1800FBF762
:1052400059FD16480121FFF7B1FD200002B010BD45
:10525000134B144A1448B221FDF700FB134A0123F3
:1052600000930023FA2080000021FFF755FFC4437C
:10527000E40F094808220021FFF758FC002CE4D075
:10528000DFE7C04664FF0010182300208F230020B2
:105290004951001061500010E4200020E00C002073
:1052A00094EF00105CFD001070F4001089500010A5
:1052B00010B5002001F0F8F910BD000030B583B042
:1052C00004000D00FFF7F4FF002830D0002001F0AB
:1052D00007FA00282ED0FA2189006846FFF796FECB
:1052E000009A019B164802F09BFE002825D0FFF78C
:1052F000DFFF002804D0002001F0F2F900280CD1D3
:1053000001200021404200F0D7FF032464420C48F2
:1053100002F056FE200003B030BD2A00210000201C
:1053200001F0EAF9041EF2D103246442EFE70324FA
:105330006442EFE703246442ECE703246442E9E7B4
:1053400018230020F0B5C64600B582B080460D0097
:10535000FA2189006846FFF759FE009A019B2C4804
:1053600002F05EFE002803D102B080BCB846F0BD5A
:10537000FFF79EFF002849D1264B0020002118602E
:105380005960234802F01CFEEEE701200021404254
:1053900000F092FF002001F0C3F9FFF789FF002819
:1053A000EFD0002001F02EFA002820D0AC42E8DA3D
:1053B0002E1B002001F026FA0200864200DC32009B
:1053C000002AE2D043461919002001F0FFF9060037
:1053D00001200021404200F06FFF002001F0A0F901
:1053E000A419FCF7AFF90B4B18605960DEE7FCF726
:1053F000A9F9084B1E685F68074A002392197B4190
:105400009942BED8D2D19042D0D9BAE70024CDE794
:1054100018230020A013002020A107000048704797
:10542000F0FD0010004870479CFD001010B504000E
:10543000154B1B78002B0ED0002C11D1134B144AA6
:105440005A80012301335B009BB21048C0229200B6
:105450001343038010BD0C48112100F025F8EBE741
:10546000052C0ED80B4BA400E4580023122BE9D8CE
:10547000E15C0029E6D00133044A58008152DBB2D6
:10548000F4E70020E6E7C046302300209C1C002003
:105490000904000084FD001010B5024800F030F847
:1054A00010BDC0460421002010B5002901D0002302
:1054B00008E00F4B0F4A10481F31FDF7CFF9373284
:1054C000C25401334A1E9A420ED90F2B0CD85A08E7
:1054D0000A4CA45C01229A43920014410F222240FC
:1054E000092AECDC3032EBE7C0180023037010BD52
:1054F000FCF4001004FE001004F50010042100204C
:1055000070B588B0040004AD0D2200212800FFF71B
:105510000DFB0D2200216846FFF708FB4B232B7083
:105520000D226946280002F03BFD002304E05A1DCD
:1055300069468A5CE2540133072BF8DD08B070BD80
:1055400002007F201040D209400080184001014B2A
:10555000C0187047DC1C002010B5038B3F333F227E
:105560009343022915D0124C2268C260D3182360DD
:105570009C0610D10F4C6240634080246401A3421A
:105580000FD88906114380231B060B434268136022
:1055900010BD5B00E7E7084B084A09485421FDF7B6
:1055A0005DF9084B054A06485621FDF757F9C046F4
:1055B000E020002000001050B0F6001074FE001033
:1055C000E0F600103CF70010F0B583B005000E00C7
:1055D0001400FFF7B5FF7F232B40EF0985707A4257
:1055E0007A4142700022C2700683C476012F0ED029
:1055F000DA0013498C46624482608268002111609F
:10560000002B0AD143600F4BC36003B0F0BDDA003A
:105610000D498C4662448260EFE7012F09D0013BBF
:10562000DB000A4A9446634443602100FFF794FF7D
:10563000EBE7013BDB00064A944663444360F4E732
:105640008400105000011050800010500C001050C9
:1056500008001050F0B585B007000E00150001AC31
:105660000C2200212000FFF761FA277003236370EA
:1056700002962900200002F0CBFC05B0F0BD70B509
:105680000C001500FFF75CFF2A00210000F00EF966
:1056900070BD000010B5002804D101210520FCF7E1
:1056A00057FA10BD034B044AD52104484900FDF7C1
:1056B000D5F8C04684F7001064FE0010E0F6001034
:1056C00010B5002805D1002200218020FFF7D7FF68
:1056D00010BD034B034ADB2103484900FDF7BEF828
:1056E00084F7001054FE0010E0F60010024B8022F8
:1056F0005202DA647047C0460020115070B5041E93
:1057000026D100F0ADF8164D0C23AB671549FF22EA
:105710000520FCF771FA144840220021FFF706FA31
:10572000002240210020FFF74FFF0022402180206F
:10573000FFF74AFF02F094FC01232B6480239B05B2
:10574000EB649023094AEA502000FFF7CFFF70BDB9
:10575000074B084A86210848FF31FDF77FF8C0460D
:1057600000001150A5040020DC1C002010D0010016
:1057700084F7001088FE0010E0F600100B785B063E
:1057800002D14B78052B00D070478A78014B1A6004
:10579000FAE7C0460000115010B50A0000280DD1EC
:1057A0008878097953791B020B435B05590DD27830
:1057B0009207920FFFF708FF012010BD034B044A28
:1057C000FC210448FF31FDF749F8C04684F700107A
:1057D00044FE0010E0F6001010B502F041FC10BDD0
:1057E00010B50400080011001A00002C03D1FFF7C7
:1057F00046FF012010BD034B034A04480449FDF74E
:105800002DF8C04684F7001034FE0010E0F60010BA
:105810000A02000010B508004B0605D1CB09012B88
:105820000AD00222054B9A66FFF78AFE80221201F7
:10583000002102F00DFC10BD0122F3E70020115001
:1058400010B508004B0600D110BDFFF779FE00230C
:10585000C3700022014902F0FBFBF5E7FFF7FFFFF1
:1058600010B580235B040C4A13600C4A13600C4B88
:105870009A6880235B049343F9D10A4C9C2200214F
:105880002000FFF753F98022520100210648FFF75C
:105890004DF90923636710BD00E0004000F00040AF
:1058A00000C00040000011500000105070B504000E
:1058B0000D001600837E002B17D1A6820023E38201
:1058C0000133A3762561200002F062FB002804D09A
:1058D000094A902380218902D150200002F068FB00
:1058E000002805D00123237770BD02F0A9FBE4E76F
:1058F000200002F09DFBF7E70020115070B5050075
:1059000000240CE062001219D200184B1B689B188F
:10591000002B2AD05B68280098470134E4B2144B6E
:105920001B78A34210D3134A002A0BD0A342E9D814
:10593000E31ADBB2002B18D15A00D318DB000E4A51
:105940009B18E7E72300F5E70C4C532200212000C9
:10595000FFF7ECF8E01C1022FF21FFF7E7F820002A
:1059600013302022FF21FFF7E1F870BDCC16002094
:1059700088230020394F001030FF0010F419002058
:105980000268EFF3108172B61368002BFCD0BFF3EE
:105990005F8F4160704710B5FFF7B0FF00F0E2FD88
:1059A00010BD70B505000C001600C86800F0E4FDDD
:1059B000E368320001212800984770BDF0B5DE464B
:1059C00057464E46C0B582B000900139C8B2FFF7C5
:1059D00029FD002800D18EE043789A46022B00D0A2
:1059E0008BE0C5796C1101224A4B144024011978CF
:1059F0001026B14321431970AD112A405201C9B29A
:105A00002024A1430A431A70070009378278C3781B
:105A10001B021343C418A74266D27B780B2B09D014
:105A200001239B467B78042B6ED1E31B9BB29946E6
:105A3000002538E0FB789B463B78FF18F2E76B00C7
:105A40005B19DB00344A1668F618002E3DD10020A1
:105A500054E02B0032E0B268304B9A4242D1D34638
:105A600040E02C49CB18DD700132D2B2934509D900
:105A7000BB789B18DBB22749C918C978FF29F0D039
:105A800000203BE026482B00019E3200390001F047
:105A900063F9B4466744234B1B78AB42BBD200206A
:105AA0002CE00135EDB21F4B1B78AB42F3D31E4AFD
:105AB000002ACED0AB42C2D8EB1ADBB2002B25D1E4
:105AC0005E00F618F600194BF618B3684A4639001E
:105AD0000098984701900828E3D98145E1D35B46B7
